:020000040000FA
:10000000C0070000D1060000D1000000B1060000CA
:1000100000000000000000000000000000000000E0
:100020000000000000000000000000005107000078
:100030000000000000000000DB000000E500000000
:10004000EF000000F9000000030100000D010000B6
:1000500017010000210100002B0100003501000004
:100060003F01000049010000530100005D01000054
:1000700067010000710100007B01000085010000A4
:100080008F01000099010000A3010000AD010000F4
:10009000B7010000C1010000CB010000D501000044
:1000A000DF010000E9010000F3010000FD01000094
:1000B00007020000110200001B02000025020000E0
:1000C0001FB5C046C04600F0EFFA04B00FB41FBD24
:1000D00008205A49096809580847382057490968CB
:1000E000095808473C2055490968095808474020E5
:1000F0005249096809580847442050490968095875
:10010000084748204D490968095808474C204B4981
:10011000096809580847502048490968095808479C
:100120005420464909680958084758204349096836
:10013000095808475C204149096809580847602068
:100140003E4909680958084764203C49096809582C
:100150000847682039490968095808476C20374919
:100160000968095808477020344909680958084740
:100170007420324909680958084778202F490968CE
:10018000095808477C202D490968095808478020EC
:100190002A490968095808478420284909680958E4
:1001A0000847882025490968095808478C202349B1
:1001B00009680958084790202049096809580847E4
:1001C00094201E4909680958084798201B49096866
:1001D000095808479C201949096809580847A02070
:1001E0001649096809580847A4201449096809589C
:1001F0000847A8201149096809580847AC200F4949
:10020000096809580847B0200C4909680958084787
:10021000B4200A49096809580847B82007490968FD
:1002200009580847BC2005490968095808470000D3
:1002300003480449024A034B7047000000000020B5
:10024000C0070000C00700000122D84B5A6000BF61
:10025000D74A1268002AFBD0016000BFD44A126856
:10026000002AFBD00022D14B5A6000BFD04A12684E
:10027000002AFBD07047F0B505460E46174600240D
:1002800006E0A200B158A2005019FFF7DDFF641C80
:10029000BC42F6D30020F0BD0120C043C549086030
:1002A000401048607047014601229204086890425D
:1002B00001D9102070470020FCE7F0B505460C4638
:1002C0001646002706E028462168FFF7BDFF2D1DD2
:1002D000241D7F1CB742F6D3F0BD70B505460C4611
:1002E0002E460BE0304600F075F9FF2C01D80024B3
:1002F00001E0FF3C013C012080023618002CF1D1C6
:1003000070BD0146012292044868904201D909203B
:100310007047A9484069401C01D10F20F8E7002030
:10032000F6E7FEB504462068030000F037FA05043E
:100330002B4249598B00201DFFF7E3FF0546002D96
:1003400001D02846FEBDFFF7A7FF0120C00200F044
:1003500041F9042221469948FFF78DFF002801D07A
:100360000320EFE708222146944800F06DF90028A9
:1003700006D1002192480068FFF766FF00F00CF9F3
:100380000320DFE7A768E6686068019031463846D9
:10039000FFF7A3FF324638460199FFF78EFFB20000
:1003A0003846019900F050F9002800D1CAE703202F
:1003B000C8E700F0E3F9834800688349086041E03A
:1003C00060680190E668A0680090B200009901980A
:1003D00000F03AF90746002F00D1B3E70E20B1E74D
:1003E000201DFFF760FF0546002D01D02846A9E734
:1003F0006068002807D1FFF74FFF0320800200F05C
:10040000E9F800F0C9F8FFF747FF0120C00200F04B
:10041000E1F8042221466948FFF72DFF002801D0AA
:1004200003208FE708222146644800F00DF90028D8
:1004300006D1002162480068FFF706FF00F0ACF823
:1004400003207FE700BF00207CE770B505460C461F
:10045000182D04D12068FFF764FF206002E001201E
:10046000206000BF00BF70BDF0B589B05248406940
:1004700003905248806881000398081802900398FE
:10048000000B01900121090302984018401E000B47
:1004900000900124002520462946019A00F0C4F866
:1004A0000022401E91410791069001260027304608
:1004B0003946009A00F0B8F80022401E914105919B
:1004C0000490049BDB43059AD2430698184307998E
:1004D00011430791069037490698086007984860CD
:1004E00009B0F0BD70B53448446934488568466841
:1004F000AA003146204600F0A7F8002801D00020CD
:1005000070BD0120FCE72D484068002801D0012083
:1005100000E000200546FFF7E5FF002807D0FFF7C1
:10052000BBFE0320800200F055F800F035F8FFF71D
:100530009BFF002D0ED020484669204884684768FC
:1005400021463046FFF7C9FE224639463046FFF7BE
:10055000B4FE00BF00F020F810B5184844681A48EF
:100560000460204600F0DCF810BD15480068006803
:10057000401C01D100BFFEE710480068002802D0EF
:10058000042806D101E0FFF7BEFFFFF7E5FF00BF3B
:10059000FEE700BF00BFFEE7BFF34F8F0B480C49DB
:1005A000C860BFF34F8F00BFFEE7000000E50140C9
:1005B00000E40140000600400010001000080000A8
:1005C000B8070000BC070000000000200400FA0586
:1005D00000ED00E010B50146104B1A6808460223F2
:1005E0000F4C636000BF0F4B1B68002BFBD0531CEC
:1005F00004D0904202D20A4B186101E0084B986087
:1006000000BF084B1B68002BFBD00023044C636029
:1006100000BF044B1B68002BFBD010BD0010001066
:1006200000E5014000E4014010B5202A04DB01464A
:10063000203A9140002010BD914020239C1A03468F
:10064000E3401943904010BD034610B50B439B0790
:100650000FD1042A0DD308C810C9121FA342F8D025
:1006600018BA21BA884201D9012010BD0020C04328
:1006700010BD002A03D0D30703D0521C07E000208E
:1006800010BD03780C78401C491C1B1B07D1037854
:100690000C78401C491C1B1B01D1921EF1D118463D
:1006A00010BD70477047704710B500F007F810BDD7
:1006B000014B1B68DB6818470000002019481A49E5
:1006C0007047FFF7FBFFFFF7FBFC00BD20BFFDE716
:1006D0001649174C24688C420BD1164B1B68994263
:1006E0000CD1154B154A1360186810498842EDD09B
:1006F0000AE0134880F30888124B18470F4A13602A
:1007000018680A498842E1D080F308880E49884277
:1007100004DD0E48026802210A4302605B68184744
:100720000346DFE7C0070000C0070000FFFFFFFF30
:10073000000C000014100010001000000000002049
:10074000000400206B05000000200020240500406C
:100750000D48704502D1EFF3098101E0EFF3088104
:10076000886902380078182802D1C046074A104725
:10077000074A12682C3212681047000000B5054B7A
:10078000054A9B58984700BDFDFFFFFF4B04000042
:1007900000000020001000000400000030B4744687
:1007A000641E2578641CAB4204D3635D5B00E318D0
:1007B00030BC18471D46F8E7000C00000010000090
:101000001808002079BD000025140000DFBC000096
:1010100000000000000000000000000000000000D0
:10102000000000000000000000000000E9BD00001A
:10103000000000000000000025140000251400003E
:1010400055BE00005BBE0000251400002514000002
:1010500025140000251400002514000025140000AC
:1010600061BE0000251400002514000067BE0000CA
:10107000251400006DBE000073BE000079BE0000A4
:10108000251400002514000025140000251400007C
:10109000251400002514000025140000251400006C
:1010A0007FBE000085BE000025140000251400004E
:1010B000251400002514000025140000251400004C
:1010C00000F002F80AF039FE0CA030C808382418E5
:1010D0002D18A246671EAB4654465D46AC4201D170
:1010E0000AF02BFE7E460F3E0FCCB6460126334259
:1010F00000D0FB1AA246AB463343184758AE000057
:1011000078AE0000103A02D378C878C1FAD85207F6
:1011100001D330C830C101D504680C6070470000AD
:101120000023002400250026103A01D378C1FBD803
:10113000520700D330C100D50B6070471FB5C046C1
:10114000C04601F056FF04B00FB41FBD40BA70474F
:10115000C0BA7047F0B44046494652465B460FB4A9
:1011600002A0013001B50648004700BF01BC864619
:101170000FBC8046894692469B46F0BC70470000F3
:10118000C110000040BA7047C0BA70478269024976
:101190008161024810447047A11100000100000065
:1011A00001B41EB400B501F0CAFB01B40198864633
:1011B00001BC01B01EBD000040BA7047C0BA704704
:1011C000401E00BF00BF00BF00BF00BF00BF00BF88
:1011D00000BF00BF00BF00BF00BFF1D170470000DB
:1011E00070B505460C46164602E00FCC0FC5103E02
:1011F000102EFAD2082E02D303CC03C5083E042ECB
:1012000007D301CC01C5361F03E021782970641C87
:101210006D1C761EF9D270BD10B572B600F0DCF808
:1012200000280BD000F0B0F901F08BFF01F034FE84
:101230006E490020C86288626D49086062B600206D
:1012400010BDF3B5002501200007C06A81B0C0437E
:101250000006000E04D167480068401C00D101253B
:1012600072B600F0B9F8002802D062B60820FEBDC0
:10127000FFF770FF00F08CF95F4B604E00211A6899
:10128000CA40D2071FD00246CA40D20718D14AB27C
:10129000002A07DA1407240F083CA408A400A419A4
:1012A000E46904E09408564FA400E4192468920706
:1012B000D20ED440A204120E012A04D0032A02D076
:1012C00062B65048FEBD491C2029D8D301980300BE
:1012D0000AF00BFE142123232323232323230B0DA6
:1012E0000F11131F1517191B1D2E002416E00124C2
:1012F00014E0022412E0032410E004240EE0082489
:101300000CE009240AE00A2408E00B2406E00C247F
:1013100004E0052402E0072400E00624F06901212E
:101320000002000AC9070843F061002D04D009E05B
:1013300062B601200003FEBD2C4D3348E86200F088
:1013400027F9A8622A4931480860314902980860A3
:1013500000F01EF9214601F086FD01F0B6FE03F013
:1013600079FD03F0E9FB019800F0B8F8040062B6DB
:1013700003D0FFF751FF2046FEBD0020FEBD10B593
:10138000044600F029F8002800D001202070002039
:1013900010BD204908600020704710B50C46102889
:1013A00008D011280BD012280CD013280ED0012001
:1013B000086010BD61682068FFF743FF0AE0FFF78F
:1013C0002BFF07E02068FFF7DAFF03E011492068F0
:1013D00008600020206010BD05480C490068884264
:1013E00001D1012070470020704700000005004037
:1013F0000C0000200010001000E100E000ED00E013
:1014000000E400E00110000000090000BEBAFECABE
:1014100008000020040000200E4A12680C498A428D
:101420000AD118470B4A1268094B9A4204D101B5F8
:1014300001F07CFA03BC8E46074909680958084741
:1014400006480749054A064B7047000000000000A7
:10145000BEBAFECA0C0000200400002018080020BC
:101460001808002010B50146202209480AF0F2FAB7
:1014700007490020C877084610BD06490120486189
:101480000548064A0168914201D100210160704778
:101490002C010020000500400C000020BEBAFECA4E
:1014A0008307FF22DB0E9A408907090E9940002826
:1014B0000BDA0007000F083883083A489B001B1816
:1014C000D86990430843D8617047830836489B0029
:1014D0001B181868904308431860704710B5334ACA
:1014E0000446D06980B23C2815D03149088CC0B27E
:1014F000012812D1888C00070FD1088D0006000F3B
:1015000001280AD1888D0006000F06D1D06929492B
:10151000000C884201D1022010BD00210120FFF7FC
:10152000BFFF00211820FFF7BBFF00210B20FFF7B2
:10153000B7FF02211920FFF7B3FF02210D20FFF7AB
:10154000AFFF02210E20FFF7ABFF02210F20FFF7B4
:10155000A7FF0221C81FFFF7A3FF03211620FFF7F3
:101560009FFF03211520FFF79BFF134A042310461A
:101570001946103801F0B9FA204600F025F800208D
:1015800010BD69210180704710B500F030F810BD22
:101590000A48704710B500F037FD10BD704770471E
:1015A0007047704700ED00E000E400E040000010EC
:1015B000C00F00F0FFFF00005C01002003F90043B2
:1015C00010B508F0F2FF10BD10B5FD4801780029F4
:1015D0000CD101210170FB484173203804F0A6FBB7
:1015E000F94804F0F3FB012006F07CF810BD10B5BB
:1015F000F3480178002907D000210170F1484173B8
:1016000004F0C6FB04F0A8FC10BD10B5EC4800784F
:10161000002808D004F0BCFB04F09EFC002006F07B
:1016200061F8002010BD022010BDF8B516460C462A
:10163000054600F0CCFC002809D1204600F0C7FC8C
:10164000002804D1304600F0C2FC002801D0072059
:10165000F8BD304606F0EBFD6946009048782070F2
:1016600009782970002801D00020F8BD0520F8BDB8
:1016700070B50446D5481D460078401E844201DD01
:10168000D34870BD072A02D9D1480A3870BD204618
:1016900006F0E4F9002805D12946204606F056FA5E
:1016A0000028F3D001218903084370BD10B5C74954
:1016B0000978491E884201DDC54810BD06F070FA60
:1016C0000028FAD001218903084310BD10B5BF4995
:1016D0000978491E884201DDBD4810BD05F0D2FCE5
:1016E0000028FAD001218903084310BD10B5B7497D
:1016F0000978491E884201DDB54810BD06F062FA3E
:101700000028FAD001218903084310BD10B506F066
:1017100098FA002802D001218903084310BD70B552
:101720000446AA480E4600781546401E844201DD54
:10173000A74870BD104600F04AFC002801D00720E1
:1017400070BD2B4632460021204604F07EFF502813
:1017500003D001218903084370BD002070BD70B51E
:1017600004469A480E4600781546401E844201DD24
:10177000974870BD104600F02AFC002801D00720D1
:1017800070BD2B463246A021204604F05EFF502853
:1017900003D001218903084370BD002070BDF8B556
:1017A00004468A481E4600780F46401E154684426D
:1017B00001DD8748F8BD104600F009FC002801D083
:1017C0000720F8BD33462A463946204605F04DFD30
:1017D000502803D0012189030843F8BD0020F8BD3B
:1017E00010B5044600F0F3FB002801D0072010BD1F
:1017F000204605F0A3FD0028F9D001218903084304
:1018000010BD10B505F0A6FD002802D00121890306
:10181000084310BD70B505466C480C460078401E64
:10182000854201DD6A4870BD084600F0D0FB002803
:1018300001D0072070BD284606F035FA2070002040
:1018400070BD10B506F00DFB002010BD70B504464C
:101850000D46072802D95E480A3870BD084600F0D8
:10186000B6FB002801D0072070BD2946204605F0B0
:1018700038FB002070BD10B5544A1278521E9042B9
:1018800001DD534810BD05F022F9002010BD70B5F0
:1018900005464E480C460078401E854201DD4C4806
:1018A00070BD084600F093FB002801D0072070BDF2
:1018B000284605F01BF92070002070BD10B5434B81
:1018C0001B785B1E984201DD414810BD05F0E5F82C
:1018D000002010BD10B53D4B1B785B1E984201DD0A
:1018E0003B4810BD05F01BF9002010BD10B5374A6C
:1018F0001278521E904201DD354810BD06F04AF8BC
:10190000002010BD70B5054630480C460078401EDA
:10191000854201DD2E4870BD084600F058FB0028C6
:1019200001D0072070BD284606F04FF82080002027
:1019300070BD38B5254C2478641EA04201DD2448D2
:1019400038BD6C462170090A6170A270E370694667
:1019500006F014F80028F3D001218903084338BDAC
:10196000F8B5074619481C4600781546401E0E4635
:10197000874201DD1648F8BD084600F028FB002824
:1019800009D1284600F023FB002804D1204600F0AE
:101990001EFB002801D00720F8BD6946384605F037
:1019A000CBFF6846017840780002084330806846E3
:1019B000807828706846C07820700020F8BD00004C
:1019C00010000020BC010020C1150000780000209C
:1019D0003340000010B5FC4A1278521E904201DDDF
:1019E000FA4810BD06F001F8002010BD10B5F64A07
:1019F0001278521E904201DDF44810BD05F0F0FF50
:101A0000002010BD10B5F04A1278521E904201DD40
:101A1000EE4810BD05F0EEFF002010BD10B5EA4AFB
:101A20001278521E904201DDE84810BD05F0E9FF32
:101A3000002010BD70B50546E3480C460078401EF6
:101A4000854201DDE14870BD084600F0C0FA00287B
:101A500001D0072070BD284605F0D9FF2070002076
:101A600070BD10B5D84A1278521E904201DDD74899
:101A700010BD05F0AFFF002010BD70B50C46054647
:101A800000F0A5FA002801D0072070BD21462846A5
:101A900006F0EEF90028F8D001218903084370BD53
:101AA00070B505460C46084600F091FA002801D0B2
:101AB000072070BD2146284606F011FA0028F8D00C
:101AC00001218903084370BD10B505F00AFF002805
:101AD00002D001218903084310BD10B505F00AFFAB
:101AE000002010BD10B5044600F071FA002801D0A6
:101AF000072010BD05F003FF2070002010BD7CB54D
:101B00000546B148164600780C46401E854201DD68
:101B1000AE487CBD084600F05AFA002801D00720E4
:101B20007CBD21786846017061784170A178817030
:101B3000E178C17006716946284605F031FC00283D
:101B4000EED00121890308437CBD08B59E4B1B786C
:101B50005B1E984201DD9D4808BD6B4619705A70A6
:101B6000694605F001FC0028F6D0012189030843ED
:101B700008BD10B5944C2478641EA04201DD934842
:101B800010BD05F035FC002010BD10B505F026FC99
:101B9000002010BD38B5044600F019FA002801D025
:101BA000072038BD684605F01CFC6946087849786E
:101BB000090201432180002038BD70B505460C465E
:101BC000084600F004FA002801D0072070BD214625
:101BD000284606F084FC0028F8D001218903084338
:101BE00070BD70B505460C46084600F0F0F90028B7
:101BF00001D0072070BD2146284606F07CFC002855
:101C0000F8D001218903084370BD10B56E4A1278DF
:101C1000521E904201DD6D4810BD06F07AFC00288E
:101C2000FAD001218903084310BD10B5664C247811
:101C3000641EA04201DD654810BD06F079FC002855
:101C4000FAD001218903084310BD70B505460C4642
:101C5000084600F0BCF9002801D0072070BD2146DD
:101C6000284606F04DFD0028F8D0012189030843DD
:101C700070BD70B505460C46084600F0A8F900286E
:101C800001D0072070BD2146284606F057FD0028E8
:101C9000F8D001218903084370BD70B505460C4694
:101CA000084600F094F9002801D0072070BD2146B5
:101CB000284606F056FD002070BD10B506F067FD01
:101CC000002802D001218903084310BD70B50C46DD
:101CD000054600F07CF9002804D1204600F077F991
:101CE000002801D0072070BD2146284606F096FD49
:101CF000002070BD70B506463348144600780D4686
:101D0000401E864201DD314870BD002D04D00846DA
:101D100000F05DF9002806D1002C06D0204600F026
:101D200056F9002801D0072070BD002D03D02946A8
:101D3000304605F0A5FB002C03D02146304605F0C7
:101D4000E3FB002070BD70B506461F4814460078BE
:101D50000D46401E864201DD1C4870BD002D04D09A
:101D6000084600F034F9002806D1002C06D02046A1
:101D700000F02DF9002801D0072070BD002D03D000
:101D80002946304605F0A1FB002C03D02146304601
:101D900005F0CFFB002070BD10B504460C4800785C
:101DA000002817D003F0F4FF04F0D6F8204605F021
:101DB00029FD002810D0044920780870002005F083
:101DC00091FC002010BD000078000020334000008E
:101DD000100000200220F5E70720F3E710B50446C5
:101DE00000F0F5F8002801D00720EBE705F08AFDA8
:101DF00020700020E6E710B5044600F0E8F800285F
:101E000001D00720DEE705F082FD20700020D9E731
:101E100070B5054676480C460078401E854201DDC7
:101E2000744870BD084600F0D2F8002801D00720A1
:101E300070BD284605F071FD2070002070BD70B5A2
:101E400005466B480C460078401E854201DD694816
:101E500070BD084600F0BBF8002801D0072070BD17
:101E6000284605F060FD2070002070BD10B504F01C
:101E7000F9FD0020A6E710B504F0FAFD0020A1E767
:101E800010B5044600F0A3F8002801D0072099E718
:101E900059480021425C6254491CC9B20B29F9D34C
:101EA00000208FE710B5044600F091F8002801D01B
:101EB000072087E74E48B221007820700820607024
:101EC0000020A070E170362121716071F520A071B1
:101ED0000120E071002075E7FFB5062581B01E46A0
:101EE00017460C46002904D0084600F070F8002878
:101EF0000DD1002F04D0384600F069F8002806D133
:101F0000002E07D0304600F062F8002802D00720EB
:101F100005B0F0BD0198002804D0012806D00228A1
:101F200008D109E0207804F04BF802E004F04CF806
:101F3000207000252846EBE7207806F076FCF8E7CD
:101F4000FFB5062581B01E4617460C46002904D071
:101F5000084600F03CF800280DD1002F04D0384688
:101F600000F035F8002806D1002E06D0304600F0EB
:101F70002EF8002801D00720CAE70198002804D0D5
:101F8000012811D002280DD119E0002528461B4E4A
:101F9000256004E0297801F011F86D1C2060B5423D
:101FA000F8D300252846B3E7154822788105002A92
:101FB000826A02D00A438262F3E78A43FBE7207811
:101FC00006F03EFCEDE710B509F0D9FCFAE6002872
:101FD00009D00A49884206D301214907884204D31F
:101FE0000849884201D20120704700207047000054
:101FF000780000203340000004BF000000D0000043
:10200000000500400009002010B5C0380C46030050
:1020100009F06BFF4021242933373B3F434A515A93
:102020005F62676D727A82888D979DA3A9AFB5BAFA
:10203000C0C6CBEFF3F7FEEAE9E8E7E6E5E4E3E262
:10204000E1E0DFDEDDDCDBDAD9D8D7D6D5D4D3D2F8
:10205000D1D1D0D1CFD1FFF7D8FA71E1204607C84E
:10206000FFF7E3FA6CE1207BC3B2207AC2B2207999
:10207000C1B22078FFF7FCFA62E12078FFF716FB87
:102080005EE12078FFF722FB5AE12078FFF72EFB74
:1020900056E12078FFF73AFB52E12079A268C1B2FD
:1020A0002078FFF73CFB4BE12079A268C1B2207891
:1020B000FFF755FB44E1207BA268C3B2A08881B240
:1020C0002078FFF76CFB3BE120786168FFF7A2FB0B
:1020D00036E1FFF7B6FB33E120786168FFF7B6FB26
:1020E0002EE12079C1B22078FFF7C5FB28E12078E6
:1020F0006168FFF7CCFB23E1207AC2B22079C1B23C
:102100002078FFF7DBFB1BE1207AC2B22079C1B255
:102110002078FFF7DFFB13E1A08881B22078FFF77A
:10212000E5FB0DE120786168FFF7ECFB08E1207B1F
:10213000C3B2207AC2B2A08881B22078FFF7F9FB3F
:10214000FEE0211D0EC92078FFF70AFCF8E0A08808
:1021500081B22078FFF73EFCF2E02079C1B220780E
:10216000FFF744FCECE02079C1B22078FFF74AFC8D
:10217000E6E02079C1B22078FFF750FCE0E020785B
:102180006168FFF757FCDBE02079C1B22078FFF7E8
:1021900068FCD5E02079C1B22068FFF76EFCCFE083
:1021A00020786168FFF77CFCCAE02078FFF78CFCA0
:1021B000C6E0C0E0B9E0C4E0B3E0ACE0A5E09FE079
:1021C00098E092E08CE086E07BE074E06EE068E00E
:1021D00064E05FE05AE055E04AE046E040E03AE083
:1021E00035E030E02BE025E01AE011E009E004E002
:1021F000FFE72078FFF771FCA2E02068FFF772FC90
:102200009EE0207A6168C2B22078FFF778FC97E000
:10221000207AC2B22079C1B22078FFF796FC8FE015
:10222000207BC3B2207AC2B22079C1B22078FFF7F6
:10223000A0FC85E0208880B2FFF7A7FC80E0206842
:10224000FFF7A8FC7CE02068FFF7C8FD78E0206875
:10225000FFF7D1FD74E020786168FFF7D9FD6FE0EA
:1022600020786168FFF7EBFD6AE0FFF7FFFD67E0AC
:10227000207BC3B2207AC2B22079C1B22078FFF7A6
:10228000FAFD5DE02068FFF7FBFD59E02068FFF7ED
:1022900009FE55E02068FFF7A3FA51E0FFF7B1FA15
:1022A0004EE020786168FFF788FC49E0207861689B
:1022B000FFF797FC44E02079C1B22078FFF7A5FC36
:1022C0003EE0207BC3B2207AC2B22079C1B220782E
:1022D000FFF7ABFC34E020786168FFF7B6FC2FE035
:1022E00020786168FFF7C5FC2AE020786168FFF775
:1022F000D4FC25E0A08881B22078FFF7DEFC1FE047
:1023000061682068FFF7E2FC1AE02078A268616843
:10231000FFF7F0FC14E02078A2686168FFF713FD76
:102320000EE02068FFF738FD0AE0211D0EC9207875
:10233000FFF7D2FD04E0211D0EC92078FFF700FE53
:10234000206010BD30B40121BD48C9020160CD102C
:1023500005604A030260BB4803681B021B0A036056
:1023600004680023240A24020460B7480468240A8D
:1023700024020460B548012444608460B44C2360A6
:102380006360A360B34B19601D601A60B24B1960A3
:102390001A600121016030BC704710B40121A848C7
:1023A000CA0202600B0203600C060460A748416089
:1023B0008160AA4841680029FCD1A5490020086035
:1023C00048608860A34802600360046010BC7047E6
:1023D0000121A048C9020160C910016070470028AE
:1023E00005D0012805D0022805D19D4870479D4899
:1023F00070479D48704710B59CA18C2009F069FC7E
:10240000002010BD70B500219F4CA04DA04A904BFC
:10241000002808D001281DD0022822D093A1B42082
:1024200009F057FC70BD01200004A060A860116095
:102430001960984BC2039A60974A9060804A0012D4
:102440001060964801608748016095480160954892
:10245000017070BD01204004A060A8605160596007
:1024600070BD01208004A060A8609160996070BD7B
:10247000F8B59446844A764F844D002401260028FE
:1024800008D0012832D0022840D078A1E92009F0F4
:1024900020FCF8BD891E0902090A01200004906091
:1024A0003C6068607A4A1160012B1DD000217D4A92
:1024B0007D4B517061463D31DC63DE637B4B5C607C
:1024C00002249C6004241C61744B196074490E60E2
:1024D000604B89151960704B58605F4801606D4909
:1024E000C00548601670F8BD0121E0E701205E4E8E
:1024F00040046F4F012B04D1346050606860396034
:10250000F8BD9060346068603960F8BD0120544EB9
:102510008004684F012BF4D1EEE7504840687047C3
:1025200070B54B4D28680026574C012806D1A0688D
:10253000C00303D501200004A0602E606868012854
:1025400009D1A068800306D501204004A0606E6018
:10255000012001F033FDA868012809D1A0684003DB
:1025600006D501208004A060AE60022001F026FDA7
:1025700070BD10B54B490878002818D00120454A95
:10258000C0079060444AC00B90602D4A0012106052
:10259000424A00201060334A1060414A10600870BF
:1025A0004A78002A02D0487001F008FD10BD0320CF
:1025B000FAE70120404900060860704701202549DC
:1025C00000060860704701203B49400508607047DD
:1025D0000120204940050860704733490020C86346
:1025E00088151C4908607047410A344AC005C00D6F
:1025F00050435143801C08225040400A081870473D
:1026000010B42F4C430B63431B0C5C020C602B4C2F
:102610006343C31A2B485C025843284B400D434385
:10262000E31A9B1C082463405B1213700A6810189D
:10263000086010BC704710B501F097FD10BD000098
:1026400080E100E008E400E018E400E000B00040B1
:1026500040B1004080E200E000E100E000B5004051
:1026600048B100404081004044B100407372635C57
:1026700072656D5F68616C5F6576656E745F7469C5
:102680006D65722E6300000000B3004040B300404F
:1026900040B5004000F50140008300404085004007
:1026A000008200401C000020C08F004000850040D8
:1026B00044B5004048B5004000E200E0093D00009C
:1026C000378600006F0C010010B501F03AFD10BD17
:1026D00000200449C863012001218140024A1160A1
:1026E00000BF7047C01F004080E200E070B5203896
:1026F0000C46030009F0F9FB33BCC0C4C8CED2D6E7
:10270000DBEFFCED1B1F23272C31373C41484E519A
:1027100055595D616F73676B767A7E82868A8E9279
:10272000969AB2B5B8E0F0EBEAE9F4F8E600206872
:1027300008F008FEF4E0206808F00CFEF0E02068E5
:1027400008F020FEECE0207840B208F03EFEE7E022
:10275000207840B208F05FFEE2E02078616840B285
:1027600008F075FEDCE0207840B208F085FED7E086
:10277000207840B208F090FED2E02079C1B22078F3
:1027800040B208F09AFECBE02078616840B208F0D1
:10279000CAFEC5E008F0D6FEC2E0206808F0DAFE06
:1027A000BEE0207808F0EFFEBAE0206808F0D2FC26
:1027B000B6E0206808F0D2FCB2E02079C1B220680F
:1027C00008F0D3FCACE0206808F07EFBA8E02068AD
:1027D00008F07FFBA4E0207808F07FFBA0E008F081
:1027E00089FB9DE0207808F08BFB99E0207808F0C9
:1027F0009DFB95E0206808F0B6FB91E0206808F0AA
:10280000B8FB8DE0206808F0BAFB89E0206808F08A
:10281000BBFB85E0206808F0BDFB81E0206808F084
:10282000BFFB7DE0206808F0C0FB79E003F0CCFB43
:10283000C0070025002805D003F0CAFB002801D0FE
:10284000256070BD03F0C0FB800703D503F0C7FB14
:102850000028F5D12046FEF799FC61E002F099FDD1
:102860005EE002F0C6FD5BE0206802F0CEFD57E0BE
:10287000206808F01DFF53E0206808F025FF4FE0B6
:10288000206808F02CFF4BE02078A268616808F00F
:1028900031FF45E0207808F042FF41E0207808F061
:1028A00053FF3DE02078616808F063FF38E020784E
:1028B000616808F075FF33E02079C1B2207808F034
:1028C000BDFF2DE02EE00FE00AE026E022E01DE053
:1028D00002E016E00CE010E0206808F09AFE1FE02D
:1028E000206809F025F81BE0206809F00AF817E0D5
:1028F000204607C802F0EAF912E0206802F041FA27
:102900000EE06168206802F06CFA09E0206802F0CD
:102910005EFC05E002F073FC02E0206802F0AAFC15
:10292000206070BD0120086070BD00000C4908786F
:102930004A78401CC0B2904200D008707047094AE3
:10294000074820BF40BF20BF417803784370136819
:10295000002B02D103788B42F3D000207047000097
:102960001E00002000E200E0FEB5F34C0746606860
:10297000FF213E0181552178FF2913D0090108313B
:1029800041583246491E083209020192090A80580C
:1029900000F0C8F9002802D02478254615E06168C7
:1029A000207888552770FEBDE34842680198115889
:1029B000280100900830105800F0B4F9002806D122
:1029C000DD482C46416800980D5CFF2DECD1DA48BB
:1029D0002101406885554754FEBD70B5D64A04466E
:1029E0000020157A53680AE00201561C9E5DA6423B
:1029F00003D10C329A588A4204D0401CC0B285429E
:102A0000F2D8FF2070BDF8B5CB4F3E7801F0B8FE8C
:102A10000146FF2E68D034012546786808354059B4
:102A200000F080F9022802D9786840595AE0C2497A
:102A30004868025D0A70A11C425C002A0CD0521E3C
:102A4000425441590122D20589180902090A41510B
:102A50003046FFF789FF30E0631CC25C0092221D04
:102A600094468258002A10D001239B029A420FD923
:102A70009205920D43595703DB191B021B0A435160
:102A80006346C3589A1A920A09E0FF21C1540AE02A
:102A9000435952039A181202120A42510022425418
:102AA0003046FFF761FFA4480C344168C2680098C3
:102AB000095980001258009890479F4C2078FF28B1
:102AC00012D001F05DFE01462078626800010830F6
:102AD000105800F027F9012896D920786168000184
:102AE0000830085801F03FFEF8BDF8B51C46154601
:102AF0000E460746FF2B03D390A1D32009F0E9F837
:102B00008D48FF21C7604560047206740170002281
:102B10004270104604E00201521C401CA954C0B28D
:102B2000A042F8D3F8BD70B5834C06466578207C8A
:102B3000854203D381A1E62009F0CBF8E068A90023
:102B400046506078401C6070284670BDFFB581B06B
:102B50001D46FF2401F014FE774F06467978019850
:102B6000814203D875A1F42009F0B3F8724800211E
:102B7000037A406810E00A019446521C825CFF2AE6
:102B800024D0019FBA4205D162460C328758029A7E
:102B900097421DD0491CC9B28B42ECD8FF2C17D0EC
:102BA00021014B1C019AC2540B33029AC250039B61
:102BB000614F0022012B0ED00B1DC25001239B023E
:102BC0009D4216D9AA05920D08D008E00C46E1E70F
:102BD000FF2005B0F0BD0B1DC550EFE71A465303AB
:102BE0009B190E461B0208361B0AAA1A8351920A29
:102BF00009E0002D00D101256B039B191D022D0A50
:102C00000B460833C550891C42543D463E78204649
:102C1000FFF7AAFE2878B04215D001F0B1FD0146B9
:102C200028786A6800010830105800F07BF8012805
:102C300007D92878696800010830085801F093FD29
:102C400001E0FFF7E0FE0198C3E770B50C460546CA
:102C500001F096FD064621462846FFF7BEFEFF28F6
:102C600017D0354D040120466968083008583146B0
:102C700000F058F80121090340186968A41C095D97
:102C8000400B002901D089020818002800D101203A
:102C900070BD002070BDF3B581B007460299FFF703
:102CA0009CFEFF282AD0244D2E786968324634468F
:102CB00004E0844205D026462301CC5CFF2CF8D1E9
:102CC0001CE0FF2C1AD0A6421FD11001085C28700E
:102CD000FF2818D001F054FD2A78014612016868D7
:102CE0000832805800F01EF8012809D92878696850
:102CF00000010830085801F036FD06E00020FEBD56
:102D0000FFF781FE01E001F036FD38460299FFF73A
:102D10009CFF22016968FF23541C0B558A5C330118
:102D2000CA54FEBD401A00020121000AC9058842AA
:102D300000D9002070470000680300207372635CB4
:102D4000736F635F74696D65722E6300F8B5044636
:102D5000800700250126002804DA5848C563C663A9
:102D600002208443E00404D55548C563C66380143B
:102D70008443600003D55348456080058443E005E3
:102D800004D55148C563C66380158443A00404D5A7
:102D90004E48C563C6634014844360042104C00FD9
:102DA000C90F884203D04AA1612008F092FF200495
:102DB000800F0AD04B49CD634B48C563C563CE63D2
:102DC000C663C66303208003844320050AD5474FAA
:102DD000FD632F20FEF7F4F9FE632F20FEF7F0F9D4
:102DE000F814844308F0F7FC4148044203D038A1AA
:102DF0008D2008F06EFFF8BDF0B500210A46FF23D4
:102E00000446CC40E4072AD04CB2E606F60E012573
:102E1000B540384E3560384E3560002C11DA250744
:102E20002D0F083DAE08354DB6007719FD69A40792
:102E3000E60E1C46B440A5431446B4402543FD614C
:102E40000DE0A6082E4DB60076193568A407E70EEA
:102E50001C46BC40A5431446BC4025433560491C74
:102E60002029CDD3F0BD70B5264C0D462060FFF76C
:102E70006DFF2068FFF7C0FF284602F05BFB08F0FB
:102E8000B3FB08F0FAF808F0A6FC08F09AF801F095
:102E9000BFFD01F051FE70BD10B51A4C2068FFF760
:102EA00055FF2068FFF7A8FF08F095FC02F0BCFB77
:102EB0000020206010BD134800687047C01F00400C
:102EC000C0CF004000E50140C08F0040C0DF00409F
:102ED0007372635C736F635F636F6E6669672E63A3
:102EE00000000000C0EF0040C0FF0040C0BF004035
:102EF000FEFF0FFC80E100E080E200E000ED00E07A
:102F000000E400E02000002008B5027869460A705D
:102F100040784870088808BD08B5027869460A708C
:102F200042784A7082788A70C078C870009808BD6C
:102F300003E00B78491C0370401C1346521ED2B2AA
:102F4000002BF6D1704701E00170401C1346521E61
:102F5000D2B2002BF8D1704710B507E003780C7897
:102F6000401C491CA34201D0012010BD1346521E33
:102F7000D2B2002BF2D1002010BD02090007000ED2
:102F80000243CC20104081083320024090000143CE
:102F9000AA200840552240081140490008437047C4
:102FA0000204120E000202434A401006000F504075
:102FB000010341400806C00C48407047C0434840E8
:102FC000064A0021C30702D04008504000E04008F4
:102FD000491CC9B20829F5D3C04370472083B8ED16
:102FE0007047704770477047704770477047704729
:102FF000704710B508F09EFE10BD000000000000F4
:1030000010FFFFFFDBE5B15100D000006900FFFFBA
:10301000F8B5F74C207BE17A88421CD00126F54DAB
:103020000027E07A215C14200A4642435019037CB1
:10303000052B11D0037C062B1CD0037C072B28D03A
:10304000437C012B33D0ECA1EE4808F042FE207BFC
:10305000E17A8842E5D1F8BD0674E07A0A2807D003
:10306000E07A401CE072491CC8B2AA5802210CE068
:103070000020F7E70674E07A0A2808D0E07A401CBE
:10308000E072491CC8B2AA5803219047DFE700202C
:10309000F6E70674E07A0A2807D0E07A401CE0726E
:1030A000491CC8B2AA580821EFE70020F7E7477487
:1030B000E07A0A2807D0E07A401CE072491CC8B2C6
:1030C000AA580721E1E70020F7E770B50024CE4EAB
:1030D00006207072CD482546447704773830047353
:1030E000C472CB4808F02EF9CA480575F572CA4972
:1030F000601E88607571B570F57035717570C74860
:103100006439057045701420604340180574641CD0
:10311000E4B2052CF7D30120FFF774F90020FFF784
:1031200071F90120B07101F073FCBD4801F082FC1F
:10313000BC4C2070BC4801F07DFC6070FFF702F9C8
:1031400070BD10B5FFF729F9B64C207801F090FC5E
:10315000607801F08DFCAC4C207A002803D002F09E
:103160002EF90020207210BD70B5A74CA079002860
:1031700004D0A1A1AD4808F0ACFD70BDE07A0028F4
:1031800003D19DA1AA4808F0A4FD0126A67100253F
:10319000E572607A042114225043964A8018017423
:1031A0009D488168491C04D0691E81600120FFF799
:1031B00029F90020FFF726F9FFF70AF908F02BFBA1
:1031C000FFF70BFA9B480560056001209A49C00390
:1031D0000860FFF77DFA91480078022804D00328A0
:1031E00004D1E078002801D0A67000E0A570FFF7B8
:1031F000E0F970BD03467F4905201422424352186E
:10320000203A127F002A04D0401E0006000EF4D19E
:1032100070471422424351180A46403AD3620122B1
:1032200020390A777047012805D0032805D10029E5
:1032300003D1002070470029FBD010B4724C00234A
:103240006370764A002890700CD002280AD00729B3
:103250001AD20B007B441B79DB189F441505070D20
:103260000F111300D37003E01B2000E03A20D07050
:103270000120607010BC70475820F8E77720F6E70F
:103280009620F4E7B520F2E710BC0020704710B597
:1032900062484078FFF7A8F980B210BD411E1422A1
:1032A000504310B5534A8418203C042902D8207F8B
:1032B000002803D150A1614808F00BFD207F0128B0
:1032C00004D0B3204CA1800008F003FD002020773B
:1032D00010BD70B54D4C607F217F884201D1012522
:1032E00000E00025FFF719F9FFF77EF9617F227FE3
:1032F000914201D1012100E00021A942EBD170BD32
:10330000F7B50646481E84468EB0C0B2142202901D
:103310005043384A851828460695007C2D1D0728FD
:103320002AD1334F0022F87A3B7B834221D03C5C88
:10333000029B9C4201D1012201E0002A04D00A280C
:1033400011D0431CFB5C3B540A280ED0401C3B7B35
:10335000C0B28342EBD1002A0BD0387B002806D0C4
:10336000387B401E04E00023ECE70020EFE70A2052
:103370003873069A012010746046234C042813D831
:10338000142041431B4808182038007F00280BD028
:103390000698007C01280BD00698007C012803D0F9
:1033A0001098807A012807D013A1254808F091FCD5
:1033B0001098807A01286CD106980E4A007C022869
:1033C00042D00B4C207B0A286FD0207BE17A401C36
:1033D000884203D108A11B4808F07BFC0699012014
:1033E0004874217B02986054207B0A2861D062E0F7
:1033F000C4020020D40200207372635C72656D2EDB
:1034000063000000CF050000580300208C0200205C
:1034100064030020AC0200203803002013000020C9
:10342000072A000011000020113000007D0200007A
:103430005E02000000F5004080E200E0CB020000E8
:103440001503000022030000607A029B01469842A7
:1034500006D00146142778438018807C9842F8D122
:10346000637A834208D1617A142359438918897C8D
:1034700061720121A17207E0142343439B181427B2
:1034800079439B7C89188B74142306215843801838
:1034900081741098007A06281DD203007B441B79A2
:1034A000DB189F440C161412100EE07A002891D0FD
:1034B00094E7002001E0207B401C2073B9E000204D
:1034C0000FE0B4200DE073200BE0322009E00A2069
:1034D00007E0072005E0FF20FD49E03008F0F9FB98
:1034E00000200190109801680198081A286010992E
:1034F000097A002912D00221401A0102090A296022
:1035000010980268406810180002000A686010985D
:10351000807A0228109803D0007B74E00421EBE746
:10352000007A002813D002220198101884461098BF
:103530004268604608301718E648019A4078904281
:1035400002D9E278002A04D03846083005E0042287
:10355000EAE7019A801AC0190830627A062A1CD05C
:10356000627A14235A43DC4BD2185268914214D029
:10357000DA4B0793617A14225143D74A89184A6873
:103580008968921B891B12020902120A090A9042D9
:103590003AD89A4238D8994236D83018C01B00021F
:1035A000000A286010996044CD4AC9680002000AE8
:1035B0009446421A01239B0507929A4201D2104673
:1035C00014E00A1A08929A4201D207980EE0079A6C
:1035D0006346624503D9591A0818401C06E0089A48
:1035E000624506D9181A4018401C4042002860DC89
:1035F00003E0B749BB4808F06CFB2868C01900021B
:10360000000A6860002028726868082708300002F5
:10361000000A68601098407AA8721098007A687260
:1036200003280ED200280CD008F0F0F9002803D0AF
:1036300007E0002011B0F0BD01983A210F1A3220A6
:103640000190A4480178012901D0032909D14078CB
:103650000199884205D9E178002902D10199401ADF
:10366000C71928689D4A801B844601026868090AB8
:10367000801B03021B0A03938F421AD81346914200
:1036800017D80399994214D8617A062915D0677A18
:10369000614606220392019214228F4B7A43D2187C
:1036A00093689B1B8B4216D80397977C062FF3D108
:1036B00073E0029801F05AF9BBE7069902220298DA
:1036C0000A74627A062A00D0627A8A7460720120D3
:1036D000A07211B0F0BD062F5FD00022394694468B
:1036E00014227D4B4A43D21853689B1B834225D238
:1036F000917BAB7A99421BD806980521029D0174F3
:10370000794C207B0A280FD0207BE17A401C88422C
:1037100003D16F49754808F0DCFA207B2554207BE3
:103720000A2800D0C7E6C4E6E07A0028F1D0F4E722
:1037300001218C46917C0629D2D102E06046002806
:103740002AD03D46019114202A4642436248062170
:10375000161831741038007B0A28634816D0017B94
:10376000C07A491C814203D161A1644808F0B1FAD2
:103770005D48017B4554017B0A290BD0017B491C24
:103780000173B57C0198A842DDD106E0C07A00281B
:10379000EAD0EDE70021F3E70197069902204E4DAC
:1037A0000874607AB84207D1069901988874029823
:1037B00060720120A07221E00398062F0FD0062826
:1037C00003D14BA14E4808F084FA039814225043C9
:1037D0004019029981740699019888740EE00628B0
:1037E00003D143A1474808F074FA039814225043C8
:1037F000401902998174069906208874012011B03D
:10380000F0BD70B50D46404A441900210B46101A10
:103810008B4103D236A13D4808F05BFA3C48854213
:1038200003DD33A13B4808F054FA3B48854203DAF4
:103830002FA13A4808F04DFA3948844205DA002CA5
:1038400001DB204670BD364800E03648201870BDC8
:10385000401E70B5C0B2142148431F494418607B14
:10386000062813D203007B441B79DB189F44020C0B
:103870000A080604002069E0B42010E073200EE07E
:1038800032200CE00A200AE0072008E0FF2018A1FF
:10389000E03008F01EFA617B0020002956D002219A
:1038A0004018616840180002000AFEF79DFE0C25D2
:1038B0006557154A441900210B46101A8B4103D253
:1038C0000BA1124808F005FA1148854230DD2BE0C3
:1038D000F833000013000020D4020020FFFF3F0057
:1038E000FFFFFF000E070000C402002007020000D7
:1038F0007372635C72656D2E63000000C503000087
:10390000DD030000E3030000FF7F841EF5030000D9
:103910000020A107F603000000E05EF8F7030000B6
:103920000080841E00807BE1FA49FB4808F0D1F951
:10393000FA48854203DAF749F94808F0CAF9F94824
:10394000844207DA002C03DB204670BD0421A7E780
:10395000F44800E0F448201870BDF0B5064683B086
:10396000F2480190457A029534687068001B07029E
:10397000EF483F0A001B0090062D2DD01420294649
:103980004143EC480122081884464168E848920502
:103990008646081B904210D3631A93420DD3024609
:1039A0007046724503D900984018401C05E07345E5
:1039B0000ED9411A0819401C404200280CDA604612
:1039C0000295857C0198C0790028D5D003B0F0BD60
:1039D000D049D94808F07DF90298854226D01421B3
:1039E0004843D4490123401802908068D0499B0580
:1039F0008C46011B8646994210D3221A9A420DD357
:103A00006346614503D900997144491C06E0194693
:103A100062452DD9091A0819401C4142002905DDCB
:103A20000298B17A807B814200D37446062D15D06E
:103A3000C0491420454368184268121B1202120A3A
:103A4000BA420BD2B27A837B9A4200D38468857CD7
:103A50000198C0790028B9D1062DEAD13068A0427A
:103A6000B4D0E0190002000A3460706003B0F0BD09
:103A7000A849B14808F02DF9D8E7F0B5AF49044698
:103A8000486885B0C005C00D1BD0103840B2002872
:103A90000BDA0207120F083A920892005118C9690E
:103AA0008007C00EC140880908E08108A44A890047
:103AB000891809688007C00EC14088090006000EF9
:103AC00008D000262078002806D0012804D0002045
:103AD00005B0F0BD0126F5E72079062813D20300D2
:103AE0007B441B79DB189F44020C0A080604002063
:103AF00018E0B42010E073200EE032200CE00A2021
:103B00000AE0072008E0FF208249E03008F0E1F8F1
:103B100021790020002905D002214718834D002E6D
:103B200002D003E00421F8E70020E87102AA694608
:103B3000A068FEF765FD694608228A56E06801A97B
:103B40008018C01C01221F2801DA019209E003AA93
:103B5000FEF756FD6846007B002802D00198401C05
:103B6000019000990198401808300002000A019065
:103B7000C81B0002000A00906079694688720098AC
:103B80000390FEF7CAFC009A019B121A181A6D499D
:103B900012020002120A000A8A4210D888420ED885
:103BA0006846FFF7DAFE00990398814205D0C819EC
:103BB0000002000AFEF718FDA060012000E00020CE
:103BC000E979002984D0002EAED005B0F0BDF0B563
:103BD00005468FB05C480C460B9007F0BBFB534E7C
:103BE0005A4F00280BD05A48007D002803D059A115
:103BF0005B4808F06EF8207801287DD068E1787F76
:103C00000A280CD0787F397F401C884203D151A10B
:103C1000544808F05EF82078012804D011E0387F7D
:103C20000028F4D0F7E75048401920380090C07FB2
:103C3000002803D047A14D4808F04BF80099012017
:103C4000C877797F28461422494D51434919087491
:103C50002078022823D0787F142148434519207901
:103C60002872607968722A460C322946A068FEF7ED
:103C7000C7FC0C2028560F2804DD1F38287328683D
:103C8000401C28600C216956281DE26801905018DC
:103C9000C01C1F286EDA019901200860FBE027494B
:103CA0004868C005C00D20D0103840B200280BDA9B
:103CB0000207120F083A920892005118C96980074A
:103CC000C00EC140880908E081081D4A8900891892
:103CD00009688007C00EC14088090006000E04D1A3
:103CE00005201CA1000207F0F4FF787F142148434F
:103CF00045190021E06800E0DBE06A46049111709C
:103D000004A9FEF77DFC6A46002010560F2832DD1C
:103D1000012031E0F0380000F603000000E05EF81A
:103D2000F70300000080841E00807BE15803002020
:103D3000FFFFFF00D40200200E07000000ED00E0AE
:103D400000E400E0FFFF3F00640300208C0200203D
:103D5000AC0200207372635C72656D2E630000001C
:103D600011050000EF04000017000020F40400001B
:103D7000CC01002082E00020049940180790022026
:103D8000A8722079287260796872A068291DC01C09
:103D900004911F2801DA012009E0FEF731FC684692
:103DA0000078002804D0049804990068401C08603A
:103DB000287A062813D203007B441B79DB189F4422
:103DC000020C0A08060400200FE0B4200DE0732066
:103DD0000BE0322009E00A2007E0072005E0FF2081
:103DE000FD49E03007F075FF00202179002943D01C
:103DF0000221401804906968083008180799089053
:103E000009180498081A0C900020F071FEF785FB41
:103E100004462860079820180002000AE860707ABB
:103E2000062825D0707A14214843EC494018406890
:103E30000899019040180002000A0290687A6946C9
:103E4000887301A8FFF789FD0199029A091B121BCB
:103E500009021202E24B090A120A0C98994207D889
:103E6000824205D80199049808180002000A2860C7
:103E7000F0790028C8D110E00421BAE704AA01991A
:103E8000FEF7BEFB6846007C002804D0019801992B
:103E90000068401C08602078A872787F0A2806D045
:103EA000787F401C78770B9807F06CFA4BE0002085
:103EB000F8E7CC48401920380090C07F002804D093
:103EC000A320C9A1C00007F004FF00990120C87712
:103ED000C84805742078022803D1C3A1C64807F05A
:103EE000F8FEC44D20792872607968722A460C3237
:103EF0002946A068FEF784FB0C2028560F2804DD15
:103F00001F3828732868401C28600C216956E06817
:103F10002A1D4018C01C01921F2802DA01201060DF
:103F20000CE004AA0199FEF76BFB6846007C0028B0
:103F300004D0019801990068401C08602078A8729C
:103F4000AC4901200875787F397F884224D0747A83
:103F5000062C23D0FEF7E1FA14214C439F49611847
:103F60000A7C042A18D00A7C032A15D04B68896879
:103F70001B1A081A1B020002994A1B0A000A082B86
:103F80000AD31146934207D8884205D8787F397FF3
:103F9000884201D0FEF70DFB0FB0F0BD787F397F6E
:103FA0008842F7D10FB0F0BD10B50020FEF717FA28
:103FB00010BD10B50120FEF712FA10BDF1B5009842
:103FC00002287DD08D4C607A062803D186A18C48CA
:103FD00007F07FFE0026A6710125E572607A0321B5
:103FE00014227E4F5043C0190174FEF7E7FA00987F
:103FF000002808D0012826D0022861D0032876D0D6
:1040000079A180483FE08048007F002803D076A156
:104010007E4807F05EFE65717B4D00202E60FEF746
:10402000F1F9A968481C04D0012300221846FEF7C4
:104030001FFA607A617A401CC0B2142251437A5848
:1040400001219047F8BD0120FEF7DCF960790028D6
:104050000DD06D488068401C09D0607A617A401CA0
:10406000C0B2142251437A5806219047F8BD6648E1
:10407000007F01280AD0022812D0032824D0042867
:1040800036D059A1624807F024FEF8BD20790028F7
:1040900003D02671FEF797FAE5705B480677F8BD06
:1040A000207A002802D101F061F92572607A617AE4
:1040B000401CC0B2142251437A580021904700E0BE
:1040C00030E051480677F8BD4F4F0123397B7868BF
:1040D0000022411A1846FEF7CBF92079002803D0B8
:1040E0002671FEF770FAE57002203877F8BD1EE001
:1040F000454E217870680123411A00221846FEF7C8
:10410000B7F9207A002802D101F030F92572607ADF
:10411000617A401CC0B2142251437A580021904762
:104120003577F8BD3B48007800F0A8FCF8BD607A10
:10413000617A401CC0B2142251437A58052190473D
:10414000F8BD10B52D4C607A062803D126A132485F
:1041500007F0BFFD607A617A401CC0B2142251435F
:104160001E4A52580421904710BDF0B583B0062076
:104170000290FEF7D2F9214C0090617A2748019015
:10418000062920D0617A1420414314480918097C7B
:10419000042918D0617A142251430818007C03289E
:1041A0007DD00198009E02684068921B801B0C49DC
:1041B00012020002120A000A0B46082A6FD39A4222
:1041C0006DD888426BD810488068401C03D006A187
:1041D000134807F07EFD25E0543D0000D402002086
:1041E000FFFF3F00170000207372635C72656D2E45
:1041F00063000000AC0200201E05000058030020F0
:104200004F050000A2050000380300205B050000F8
:104210009605000011000020A905000048030020B9
:10422000E505000000206071607A062807D16078FB
:10423000002804D0FE48C178417081780170607A0E
:10424000062815D0617A14204143FA480918097CE0
:1042500004290DD1617A0291627A012114235A4313
:1042600012181174627A5A431018807C6072A1721D
:10427000F14D687F297FF14F884233D0F04E287F7F
:10428000142148438019007CC05D0128287F07D095
:1042900048438019007CC05D02282FD044E0FCE137
:1042A000142148438019807A01280AD0297F0220EE
:1042B000142251438919097CC855287F0A2808D03F
:1042C00009E0297F0020142251438919097CC8552F
:1042D0002AE0002001E0287F401C2877687F297FA2
:1042E0008842CCD1D74D287D00284CD0287CC15D98
:1042F000012928D0C05D022830D03AE0287F14215F
:1043000048438019807A012803D0CFA1D14807F013
:10431000E0FC297F00201422514389198872297FEB
:1043200051438919097CC855287F142148438219B3
:10433000287F48438019017C0098FEF7E1FF287F21
:104340000A28C8D1C5E7A97A012904D00221C1559C
:10435000002028750DE00021C1550AE0A87A012847
:1043600003D0B9A1BC4807F0B4FC0020A872297C96
:10437000C855287D002806D0297CB24A0098FEF74F
:10438000BFFF00202875029806281ED0142148433C
:10439000A8494018017C012917D107210174AF4DAC
:1043A000287B0A283CD0287BE97A401C884203D12C
:1043B000A5A1AB4807F08DFC297B02986854287BA7
:1043C0000A2831D0287B401C2873607A06287DD0CB
:1043D000A07A00287BD00020A072617A142041438B
:1043E0009448A04B0A18566891681D46D2687C35DF
:1043F000DE67AA6069609C4D697E002916D002269E
:10440000617A14228B4851430818407B06281BD23E
:1044100003007B441B79DB189F440A1412100E0C16
:10442000E87A0028C4D0C7E70020CDE70426E7E7F4
:1044300000200FE0B4200DE073200BE0322009E0F3
:104440000A2007E0072005E0FF207FA1E03007F009
:1044500040FC0020C1B22973687E022801D00128E7
:1044600010D1286942180098101A0002000A3A2850
:1044700008D903206876323A1002000A28613220F7
:10448000287308E0322906D2207A00280AD100F0E9
:104490006DFF012005E0207A002803D000F08FFF97
:1044A000002020726249082248782070097801298A
:1044B00001D0032906D101212171297B884201D92C
:1044C000421A0832A378002B03D001E08EE09CE072
:1044D000921C2179002901D1002B5DD09446634ABA
:1044E00000990092019A176852687F1A511A3F0288
:1044F00009023F0A090ABC4538D85C4A974235D8B8
:10450000009A914232D8297B884214D92B69421AE9
:104510009A1A1202120A101880190002000A2A615F
:104520006860002905D0032028770006000E3ED1E0
:104530004CE00120F8E781420BD92A69511889190A
:104540000902090A6960002801D00420ECE7022072
:10455000EAE7002B03D13CA1454807F0BAFB2869E4
:1045600080190002000A6860002013E0002020711A
:10457000A070297B002908D0286940188019000202
:10458000000A68600220287711E029698919090268
:10459000090A6960287719E0287B00280FD029696B
:1045A000081880190002000A68600220287728692C
:1045B0000123811900221846FDF75AFF09E02869F6
:1045C00080190002000A6860002028770120FDF7AA
:1045D00019FF617A1420414316480C2208188256AC
:1045E000012300206968FDF743FF0EE00120FDF77D
:1045F00009FF0020FDF706FFFDF7EAFE207A0028FC
:1046000003D000F0DCFE00202072A078002804D047
:10461000FDF7D9FF0020E070A0706078002804D07A
:104620000348C1784170817801702079002821E029
:1046300013000020D40200208C020020160000206D
:10464000CC010020AC0200207372635C72656D2E99
:10465000630000000706000023060000C4020020DB
:1046600035060000CC02002038030020FFFF3F0089
:104670008706000006D00020CE49E07009780029A6
:1046800000D12071CC48017BC07A814203D0CB4855
:10469000407800F0F3F90120E07103B0F0BDF0B50F
:1046A000C74C0746607A83B0062803D1C5A1C84825
:1046B00007F00FFB607A1421C64E48438019007C36
:1046C000032803D0BFA1C44807F003FBC34DA8686B
:1046D000401C03D0BBA1C24807F0FBFA607A14214A
:1046E000484381190C20085600216A460091117137
:1046F000C01901AA6946FDF783FF6A4604201056D7
:104700000F2801DD012000E00020009940186968B1
:1047100040180102090AA9606079002804D0012329
:1047200000221846FDF7A4FE03B0F0BD70B5AE4CF4
:10473000AC4A0B1AA34214D3451AA54211D3934293
:1047400003D9101A43185B1C0BE0954204D9511A87
:104750000818401C434204E09AA1A44807F0B9FAA3
:104760000023184670BD10B5014601230022022027
:10477000FDF77EFE10BD10B50220FDF743FE10BD13
:1047800010B5FDF7CAFE10BDF0B58D4D0446E87AB0
:1047900083B0002803D18BA1954807F09AFA642CC6
:1047A0004DD3944A00210846121B884147D39248B2
:1047B000417F007F814242D19048007D00283ED158
:1047C000687A1421834F4843844EC519306801AA82
:1047D00000196946FDF714FF6946042008560028B1
:1047E00002DD0098401C0090A96800986B680A18C8
:1047F000D21A1202824B120A9A4220D8AA7C062AA6
:1048000008D014235A43D2195268511A0902090ACE
:10481000814214D3B068401C05D00120FDF7F2FDA1
:104820000020C043B060306800193060A86800996B
:1048300040180002000A7061012003B0F0BD0020A2
:1048400003B0F0BDF8B50646401EC5B2142061495C
:1048500068434418207C002803D15AA1694807F016
:1048600038FA6548017F407F81420CD0664A1423A4
:104870004B439B181B7CB3420CD00A290CD0491C1B
:10488000C9B28142F3D15D48017D002964D0007C2A
:10489000B04261D10020F8BD0021F1E7217C05295B
:1048A00005D0217C062902D0217C072928D10121AD
:1048B0002174C17A0023027B8A4221D00246565CD1
:1048C000AE4201D1012301E0002B04D00A2911D00E
:1048D0004E1C965D56540A290ED0491C167BC9B24F
:1048E0008E42ECD1002B0BD0117B002906D0117B1E
:1048F000491E04E00026ECE70021EFE70A211173CE
:10490000617C00292AD06774C17A0023027B8A4225
:1049100024D0425CAA4201D1012301E0002B04D043
:104920000A2912D04A1C825C42540A290FD0491C21
:10493000027BC9B28A42ECD1002B0FD0027B014628
:10494000002A06D00A7B521E04E00022EBE7002179
:10495000EEE70A220A7301E017480027217C0129AB
:104960009CD1617C002999D10120F8BD70B5054624
:104970001420184A05216843801801740E4C207BCE
:104980000A2811D0207BE17A401C884203D10DA176
:104990001E4807F09EF9207B2554207B0A2807D06B
:1049A000207B401C207370BDE07A0028EFD0F2E736
:1049B0000020F7E713000020C402002011000020AF
:1049C000580300207372635C72656D2E63000000F3
:1049D000EA060000D4020020EB06000038030020A5
:1049E000EC060000FF7F841E0020A1070E070000D8
:1049F0002D070000FF1FA1078C020020AC02002041
:104A0000FFFF3F006A070000CC0100200702000002
:104A100001203E49400608603D4908603D490A685A
:104A2000FF231B029A4383121A430A6037498039D5
:104A30000860704710B502460420374904E0C300FF
:104A40005B181B79002B0AD00346401EC0B2002B16
:104A5000F5D132A1482007F03CF9FF2010BDC3007A
:104A6000CA50002259184A718A7101220A7110BD78
:104A7000294A0021C00080180171704710B5044612
:104A8000042803D325A1572007F023F92248E10089
:104A90000C182079012803D020A1582007F019F91B
:104AA0006079A179401CC0B2814200D060710120C0
:104AB000164940068031086010BD70B51548006881
:104AC000800B022803D015A1722007F002F9124DC5
:104AD000184C03262078C10048190279012A07D111
:104AE000427983799A4203D042798271685880472B
:104AF0002078401CC0B22070042801D30020207010
:104B00003046761EF6B20028E4D170BD80E100E0A8
:104B100080E200E018E400E07C0300207372635C34
:104B2000736F635F7369676E616C6C696E672E6328
:104B30000000000024000020B548002101708170B1
:104B4000704770B5B34D01236B60B34B1C68002CEC
:104B5000FCD0002407E00E6806601E68002EFCD022
:104B6000001D091D641C9442F5D30020686018687C
:104B70000028FCD070BD70B5A54C0E466178884207
:104B800003D0A6A16F2007F0A4F80325330007F097
:104B9000ACF909520624245252525249520020784C
:104BA000022803D09DA1732007F093F82570A07808
:104BB000022802D0012804D008E0A06806F004FF13
:104BC00004E02269E168A068FFF7BBFF0020A07045
:104BD000FEF7CAFA0420207070BDFEF77AFB01468A
:104BE0006068FFF7A3FD06462078022803D08BA15A
:104BF000872007F06EF88D4A8D498E48964205D879
:104C00006269032A02D2521C626102E0864207D81E
:104C10004D71801BC86086496078FEF7D8FF70BD73
:104C2000032003E0A0780028FAD1022006F0ACFEB1
:104C300000F0E5F870BD79A1B12007F04AF870BD29
:104C400070B50546FEF745FB714C60602078012881
:104C500003D072A1B82007F03CF875490220087013
:104C600000220A718D6004224A71724ACA60207063
:104C70006078FEF7ACFF70BD10B5654CA0780028D9
:104C800002D12078002801D0112010BD6A48FEF71B
:104C9000B1FA60706078002804D0012020700020F4
:104CA000606110BD032010BD10B50124020B640427
:104CB0000121624BA04202D29140186802E0203AE2
:104CC00058689140084000D0012010BDF8B50E464C
:104CD000910004460F1915463F1F009106F085FE0E
:104CE000009980028919091FB14201D2012200E016
:104CF0000022002D03D0FF2101318D4201D909206E
:104D0000F8BD4F498C421DD3A7421BD3844201D228
:104D1000874203D34B4820187C2803D820463043D1
:104D2000800701D01020F8BD8E420BD3002A09D194
:104D30002046FFF7B9FF002804D13846FFF7B4FF3B
:104D4000002801D00F20F8BD3F4840490068884244
:104D500005D02A4631462046FFF7F3FE0FE0FFF765
:104D60008BFF0028EFD12A480121C66005618460CD
:104D700081702846302148431830FFF761FF00203A
:104D8000F8BD10B504462E48800A84420BD306F0C5
:104D90002CFEA04201D8102010BDA4022046FFF72F
:104DA00083FF002801D00F2010BD27482749006845
:104DB000884203D0204606F007FE0AE0FFF75CFFBA
:104DC0000028F1D112480221846081702048FFF749
:104DD00037FF002010BD1A48010B01208840401EFB
:104DE000704700B50B460246FFF7F5FF104201D0B1
:104DF0000F2000BD114802604360002000BD10B5C7
:104E0000034C6078FEF74AFA00202070A07010BDB5
:104E10002800002000E5014000E401407372635C5B
:104E2000736F635F666C6173682E6300307500009A
:104E30009C030020D0FB0100774B000000060040DF
:104E400000D0000080EFFFEF0C000020BEBAFECAC9
:104E50003A560000F7480521817000210170417029
:104E6000C1708160704710B5F3490A78022A07D0F3
:104E7000CA681018C860C8689638FFF710FC10BDE3
:104E80008A68101888608868F6E70378EB49EC4A6E
:104E9000002B02D0012B10D014E00379002B01D09D
:104EA000012B0FD14379002B01D0012B0AD183684C
:104EB000643B8B4206D2C06810E00379002B03D01C
:104EC000012B01D0002070474379002B01D0012B2A
:104ED000F8D1C368643B8B42F4D280689042F1D829
:104EE00001207047F8B504460226FFF762F8006813
:104EF000002803D0D3A1BD2006F0EBFE0127CD4D45
:104F0000002C08D02078002817D0012805D00228CE
:104F100011D0032813D02F710DE06068C82808D382
:104F2000FFF732FC002804D06068FFF79CFF0126E1
:104F300003E0002601E000F0F7F93046F8BD2878DC
:104F40000028F8D16068FFF7A0FF0028E3D0606870
:104F50000078002826D0A878042803D0B9A1F7202B
:104F600006F0B7FEB44F0020387060680079012861
:104F700000D00020387160684079002837D00420C4
:104F8000787160688168E868FEF73BFCB86060682B
:104F9000C0689630F8600320A870A749E878FEF74B
:104FA00016FEC8E7A4480221017061680979012949
:104FB00019D00021017161684979002915D00421B7
:104FC000417161688968963181606168C968C160B2
:104FD000C068984C14346060FEF77BF920606F70F5
:104FE0000220A870A7E70321E4E70321E8E70320F4
:104FF000C6E7F8B58F4C0D46E178884204D0FF2013
:1050000090A1193006F065FE28468A4F002501263A
:105010001437030006F069FF09061237607B8C968F
:10502000C39FC300A078032807D0A078022804D02B
:10503000FF2084A11D3006F04CFEF8BDA0780328A7
:1050400007D0A078022804D0FF207EA1213006F0EE
:1050500040FE0420A07025712078002810D1FFF7B1
:1050600002FFE078FEF7F4FBE0607D49886A7D4A44
:10507000024022617B4AD2431040886200204FE008
:1050800000F052F9F8BDA078032807D0A0780228D4
:1050900004D0FF206BA1423006F01BFE20780028D0
:1050A00002D000F04DF9F8BDA078032801D104200A
:1050B00024E0FEF70EF901463868FFF737FB0028B9
:1050C00020DB796881421DDB091A5B48C16001461B
:1050D000E078FEF77CFDF8BDA078032807D0A07823
:1050E000022804D0FF2057A1633006F0F2FD20789B
:1050F0000028D6D1A0780328DBD1052006F044FC97
:10510000A670F8BD042006F03FFCA570F8BDA0789D
:10511000042804D0FF204BA1843006F0DAFD0220E1
:10512000A1688847FFF7DEFEFF260546BD3642E050
:10513000A078042804D0FF2042A1893006F0C9FDE0
:105140000120EDE7A07804289AD0FF203DA18E3001
:1051500006F0BFFD94E7A07804280AD06078002804
:1051600002D0A078022804D0FF2036A1933006F0A8
:10517000B0FD2078002894D12079002804D00620A2
:1051800006F002FC2571BBE76078002805D02A49AB
:10519000E078FEF71CFD6570F8BD0720AEE7FF2044
:1051A00028A1AE3047E7002D0AD0012D06D025A159
:1051B000304606F08EFD022DF5D1F8BD042000E04A
:1051C0000320A1688847FFF78DFE0546F3E770B519
:1051D000050005D0174CA078052803D0112070BD1C
:1051E000102070BD2048FEF705F8E070E078002838
:1051F00003D0A5600020A07070BD032070BD10B565
:105200000C480178002901D0112010BD81780529B2
:105210000ED08178012929D08178002926D001215A
:1052200001708178012921D0807800281ED01FE0EC
:105230000F2010BD40000020AC0300203D8601007F
:10524000FF1FA1077372635C736F635F72616469B0
:105250006F5F74696D65736C6F742E63000000007E
:105260000005004002810000F34F000000F068F8E4
:10527000002010BDF8B5394E0446B078002801D0A2
:1052800001280DD1002C0DD02046FFF7FEFD00288F
:105290000AD02078324D002808D0B078012823D0D9
:1052A0000F20F8BD1020F8BD0720F8BD02272F7091
:1052B0002079012814D0002028716079002811D0AD
:1052C00004206871A0689630A860E068E860E8682B
:1052D000224C14346060FDF7FCFF2060B77019E0C9
:1052E0000320E9E70320ECE700202870207901285B
:1052F00016D0002028716079002813D0042068712E
:10530000A168F068FEF77DFAA860E0689630E86072
:105310000320B0701249F078FEF759FC0020F8BD68
:105320000320E7E70320EAE710B50E48816A0E4A3A
:1053300011400A4A126911438162FDF715FF10BD41
:1053400010B5064CE078FDF7A9FF082006F01CFB1D
:105350000520A07000202070607010BD400000206B
:10536000AC03002000050040FD7EFFFF10B5EFF309
:105370001080C407E40F72B6D1484178491C4170CF
:105380004078012801D106F039FB002C00D162B62B
:1053900010BD70B5CA4CE07800280AD10125E5702F
:1053A000FFF7E4FF06F032FB002804D0002006F0EF
:1053B000EBFA002070BDC34865714560F9E770B530
:1053C000EFF31080C507ED0F72B6BD4C6078002872
:1053D00003D1BDA18F2006F07CFC6078401E607078
:1053E0006078002801D106F00DFB002D00D162B6D7
:1053F00070BD10B5B248C178002904D000214171B8
:10540000C170FFF7DCFF002010BD10B5044606F0A8
:10541000FDFAAB49C978084000D001202060002087
:1054200010BDF8B50246A64C0026A6710420202126
:1054300001251027130006F058FD0D080A0B0D0F6B
:105440001113151D1F2124262800257122E002209A
:1054500020711FE00820FBE727711BE0217119E094
:10546000012617E0FFF782FF06F0D0FA0028FBD0F4
:1054700002260FE0207102E00820FBE72771A571EA
:1054800008E02171FBE74020F4E7FF208EA1763091
:1054900006F01FFC06F0C6FA002809D006F0C8FA8C
:1054A000B04205D1304606F0C6FA0028FAD02CE00A
:1054B00001208007C5608C4900224A608B4A9661B2
:1054C000804B02225A60856089480269D243D20625
:1054D000D51702696D1C10231A4302610F4600E0C4
:1054E00020BF78680028FBD0304606F0A4FA0028D8
:1054F000FAD0002D04D17E48026910218A4302614E
:1055000070490220886000207860A07900280CD0C3
:1055100006F07CFA054606F0C1F9764A002D02D065
:10552000A260E06001E0E260A060002E01D100F026
:10553000A2F8F8BD10B5044606F06EFA002805D0B2
:105540005F490120C8704A78521C4A702046FFF714
:1055500068FF10BDF8B5644DA8680026012802D187
:10556000AE6006F011FA6868012800D16E60286804
:105570000127534C012812D12E606079002803D0F6
:10558000002006F001FA66712078002807D006F0A6
:105590003DFA002803D0012080070761A770286921
:1055A00001282AD12E6100F05FF8012080074761B1
:1055B000A079002815D006F029FA009006F06EF9BF
:1055C0000099002901D0E16800E0A168411A022990
:1055D00001DA8A1C11DC0099002901D0E06000E0AA
:1055E000A060FFF7C3FE06F011FA002804D00120E6
:1055F00080070761A77000E02770E868012812D1D2
:1056000000F032F800F030F800F02EF8A078002812
:1056100004D1FF202CA1033006F05BFBEE60A670E6
:105620002670FFF7CCFEF8BD10B5254CE0780028B9
:1056300001D106F0E7F901208107886100F014F834
:10564000A07800280BD0284CE068002803D106F091
:10565000F2F90028F8D10020E06000F005F8002001
:105660001849C043886010BD50210846491E89B2C0
:105670000028FAD17047F8B51248192787601A49EF
:1056800000200860C86006F0C1F9BE0701240C4D77
:10569000002802D03461AC7000E02C70FFF766FE89
:1056A00008484760114928798863FFF7DDFFB46136
:1056B000FFF7DAFF0C49002008617461F8BD0000B3
:1056C0005C000020000300402E2E5C2E2E5C6C69D6
:1056D00062735C736F635C7372635C736F635F634D
:1056E0006C6F636B2E6300000001004000050040FA
:1056F00000ED00E0FFFFFF7F8107C90E002808DAF8
:105700000007000F083880082D4A80008018C06903
:1057100004E080082B4A800080180068C840800997
:10572000704710B50D20FFF7E7FFC4B20420C04357
:10573000FFF7E2FFC0B2844203D023A11B2006F092
:10574000C8FA26490120486010BD0121244A4803B7
:105750001060244B00221A60234A5160234A1060D3
:10576000234A11601E4980390860704701211C4A94
:10577000480310601E4A51601A4A002111601B49FB
:105780000860704710B517490868012804D00EA1B9
:105790005C2006F09EFA10BD104880680022C0B25E
:1057A0000A6005F02CFD10BD10B50E4801680029F7
:1057B000FCD0FFF7E7FF01200C494003086010BD53
:1057C00000ED00E000E400E07372635C736F635F00
:1057D00068616C5F726E672E6300000000D5004048
:1057E00080E100E000D1004000D3004080E200E012
:1057F00000D000408307FF22DB0E9A408907090E84
:10580000994000280BDA0007000F08388308FF488A
:105810009B001B18D86990430843D86170478308E0
:10582000FB489B001B18186890430843186070479A
:10583000F849C86AC0070ED1F7480A6B42624A6B42
:1058400082628A6BC262C96B0163F24940310968A6
:10585000C20511434163704710B5F0494968487269
:10586000097ACA0701D0012803D0890703D5022885
:1058700001D1FCF7A8FB10BD70B5E9480024C46352
:105880000125C563E7480460284600F0B8FBE649F7
:10589000601E8860E5480461E5490D6101690029E1
:1058A000FCD00461C460446084600460012000F0A6
:1058B000AEFB70BDF8B5DF480125C560D8480026AD
:1058C000C663C563FFF7B4FFDB4C6661D34FDB4AA9
:1058D0007868C17809028918A161A1696A069143B3
:1058E000A161D04A03211160D0490E61CE604E60A3
:1058F0000E60D349A16309078A692B4693431A02B4
:10590000921C6263CF4AE2638279E2602563E662B9
:105910008B692A4689699A438D43AA409107890F6A
:105920002161001D00F0D7FB78688078A060BE4937
:105930001020486000210120FFF75CFF012000F0EB
:1059400057FBBC48C660F8BDF1B5BB4EB068B34C60
:105950006568A97888420ED12D1D6878FDF70DFB8A
:10596000716AC9B2884206D12878FDF706FBF16951
:105970000006884201D00020F8BDFDF7AAFC0746CA
:1059800060683946C069FEF7D1FE0546642800D23A
:1059900064256068816A02694919914203D97D21B1
:1059A00049020161E7E72846FEF7EEFE0028E3D052
:1059B0006168CF61886A40198862FEF770FE0098BE
:1059C000012500280DD0FFF775FF01F047F8706042
:1059D00097484560964A95491432091D0E2000F0FB
:1059E0001DFB082000F00BFB0120974900044860D4
:1059F0009648C56060689649406A086095490020ED
:105A0000086001460820FFF7F5FE082000F0FFFAC5
:105A1000082000F0EDFA01F054FA0120F8BDF8B5C5
:105A20000A467E4901268A4D00244868130006F084
:105A30005CFA090631ECEC7BEBEA1EE91E000F462E
:105A40000978022912D040787B4C834D01280FD071
:105A500001F0EDF8FFF72EFF01F002F86060012081
:105A6000000568607868806AFEF719FE7E70F8BDF0
:105A700001F057F9FFF71EFF00F0F0FF6060012012
:105A8000400568606A4A69491432091D0E2000F019
:105A9000C5FAE7E70F46497800291ED03978022970
:105AA00022D0082000F0ABFA6A490C607868426A9C
:105AB0002A60027B002A25D020300673012062492B
:105AC0000004486000210820FFF794FE082000F041
:105AD0009EFA082000F08CFA1BE0407801F0E9F90A
:105AE000F878FEF7CBFF06E04078012807D000F0F9
:105AF00017FB00F09FFA3C70FDF736FB10E000F05A
:105B0000ABFAF6E720304A4A047310320F2000F057
:105B100085FA78684078012804D00120FFF79CFEC0
:105B20007C70F8BD0220F9E74C4A002753683B49D6
:105B3000DB07DB0F8B70407801281ED001F03DF9A8
:105B400000F0EEFA3548007802282BD033482C219B
:105B50004068095C002941D0007B00283ED001F05C
:105B600008FF384323D0002F38D02C4847683969C4
:105B7000B86A884221D93C6121E02C48416801295A
:105B800005D1C068012802D11068012802D000F0B8
:105B90009CFAD7E7012701F049F801F00EF900F06F
:105BA0005BFACFE700F046FA1C48047083E001205E
:105BB000FFF7CAFE002811D0F8BD081A386139690C
:105BC00000917D214902009805F085FF7D22C0B239
:105BD000520200995043081A801838610F4F7868B4
:105BE00020300473F878FEF749FF0020FFF734FEF9
:105BF0003C70082000F003FA0120134900044860BB
:105C000012482DE03DE08EE03DE02FE000ED00E0A9
:105C100000E400E080000010001700406C0000204D
:105C2000C01F00400012004000130040001100405F
:105C300000100040000A0040001500401E00010155
:105C400021100000FFFF00000083004000800040A2
:105C5000408500404081004000F5014000140040B4
:105C6000C660FF20913049E02C70F8BD0D460978E0
:105C70000229F9D0407801F01CF9E878FEF7FEFE21
:105C8000F2E70C70F8BDFE4A1368002BFAD01460DE
:105C90002C22125C002A3FD00F460978022907D037
:105CA000007B00280FD001F064FE002806D00AE037
:105CB00000F0C0F93C70FDF757FAF8BD0020FFF77F
:105CC00043FE0028F9D1012000F099F9ED48006960
:105CD00000F0FBF9786820300473F878FEF7CEFE08
:105CE0000020FFF7B9FD3C70082000F088F9012082
:105CF000E54900044860E548C66096202860E04811
:105D0000046000210820FFF775FD082000F07FF9EE
:105D1000082000F06DF9F8BD0878012803D0286844
:105D200096302860F8BD00F085F9C4E770B5D84D0D
:105D30006860012000F063F9012000F068F900219B
:105D40000120FFF757FD012000F052F90024D1484F
:105D5000AC60FDF74FFA69680870CC7101200872D9
:105D60004C728C72CC727D200C7340020861203121
:105D70000C732C706C70AC7070BD10B5C44840686A
:105D8000C179002903D00021C171FFF718FB10BDB4
:105D900010B5BF482D224168525C002A0AD009780C
:105DA000002907D00178002904D002210170017870
:105DB0000029FCD172B6FFF7E0FF62B610BDB4480F
:105DC0008168002901D000200847704710B50028DD
:105DD00005D0AF4CA060B048FEF72CFEE07010BDBF
:105DE00070B50C46054600F03BFE2246294605F0FC
:105DF00031FE70BDF8B5A64C154600266268012735
:105E00005670D0615176002B01D0177500E01675E1
:105E100001F07DFD002804D060687D210776C9006F
:105E200003E06068032101769C496918016261689A
:105E30004D62086A643888620E7308781431FDF781
:105E4000C6FE2770F8BDF8B5914C1646012562686C
:105E5000069F5570D0615176002B01D0157501E079
:105E60000020107501F053FD002804D060687D21EA
:105E70000576C90003E0606803210176874971183F
:105E8000016261684E62086A643888620F7308783C
:105E90001431FDF79CFE2570F8BD10B57C48C07824
:105EA000FEF7ECFD10BD10B5FDF7ABFC10BD10B555
:105EB000FDF70FFA10BD764949688871704774493B
:105EC000496888707047724949688880704770498E
:105ED0004968C87070476E4901204968C8727047A8
:105EE000F0B56B4D07466868C1B0807A002831D1A3
:105EF0006B480026C6630124C463FFF799FCFFF7D3
:105F000035FA6A6867489179C16006619178816065
:105F1000654BF90716D0AA2141626449C161082185
:105F20004161634981614663FE216D46297000210C
:105F30006E187170491CC9B2FE29F9D3456007205B
:105F4000186004E01C6057490320403108604D4848
:105F50000460947241B0F0BD70B54D4D6868807AB0
:105F6000002814D0FFF788FC4F48002404605148F3
:105F700004614C4940310C60424A012111610169C0
:105F80000029FCD00461FFF71AFA6868847270BDBA
:105F90004848C069002804D04248403080684042E8
:105FA00040B270473A488078704710B5384840682A
:105FB000C179002903D10121C171FFF7D7F910BDC3
:105FC000334949680872704731484068007A704721
:105FD0002F484068407A012800D0002070472C48A4
:105FE0004068407A022801D00020704701207047A5
:105FF000C106C90E012088402F4908607047C106BC
:10600000C90E012088402C49803108607047C106C4
:10601000C90E0120884029490860704710B5284CF6
:10602000C3001B1919605A600121814024481038AF
:10603000416010BD10B50120134900048860134968
:10604000012048600E49002008600820FFF7D7FFB4
:106050000820FFF7DCFF10BD10B50A490120886158
:1060600014490020C8610E2000F065F80120144991
:106070004005103988600F2000F05DF822E0000034
:10608000408100400010004000830040008000403C
:106090006C0000201F5A0000BF5D0000B80B00001C
:1060A000C01F00400015004000120040BEBAFECAEA
:1060B000FF0004030011004000E100E080E200E086
:1060C00010F50140FFF7D8FB10BD10B500F075FECC
:1060D000FFF7C2FF10BD70B505461C48002640689A
:1060E0001B4CC17A002907D0C672606A000A000200
:1060F0006062E069E66170BD606A000A0002606289
:106100006878FCF73AFF616A08436062E069E6611B
:106110002878FCF732FFE16900060843E06170BDB2
:1061200010B501200B49000588600F2000F003F82E
:10613000FFF7A2FB10BD0121064A814091600021BA
:10614000C000801801614161704700006C000020B0
:106150000015004000F5014070B50C460546FFF7FC
:10616000A6FE01462846FEF7E1FAFE49002805DAB8
:106170004042400205F0AFFC201A03E0400205F067
:10618000AAFC001980B270BD10B5F74C208F618F4A
:10619000626E401AF34980B24843410AC005C00DFF
:1061A00080186066820500D5491CC005C00D606678
:1061B000E06DFFF778FEA06510BD8100EB48415807
:1061C000084640308278D20701D0C078704720312D
:1061D000C8797047E64A04211078030741D5F8B51D
:1061E000F72318401070E04A507A8300DF48C35804
:1061F000184640308478E40701D0C07801E02033AD
:10620000D879002804D0012804D0022803D101E065
:10621000032100E00221D748D74C85792078C307B5
:10622000D148DB0F006E002D05D0D27ED200E132C6
:10623000FFF7E0FD0BE0157ACB4ACA4ED28D7243D0
:10624000520A122D08D000250095FFF7FCFD20789A
:10625000400840002070F8BD01250095FFF7F3FDD0
:10626000F5E77047C048407A8100C0484058017F38
:10627000490702D501212030C1717047012A00DC95
:106280000122491E401ED30703D0491C0B78401C35
:106290000370521007D04B784370891C801C0B7818
:1062A0000370521EF7D17047C27B0F21521CC2737C
:1062B00004E0491EC9B2425C521C4254425C002AAE
:1062C00001D10029F5D17047002A4ED0FFB5AB4867
:1062D00083B001461F311030154601910090102DFA
:1062E00004D91024A54805F0D2F905E02C46A348AE
:1062F00005F0CDF9002C22D003990498491E401EC8
:10630000019AE30706D0491C521C0B78167873409B
:10631000401C037063080CD04E785778891C7E406F
